{
	"contracts/Controls.sol": {
		"Controls": {
			"abi": [
				{
					"inputs": [],
					"name": "checkNumbe",
					"outputs": [
						{
							"internalType": "bool",
							"name": "",
							"type": "bool"
						}
					],
					"stateMutability": "view",
					"type": "function"
				}
			],
			"devdoc": {
				"kind": "dev",
				"methods": {},
				"version": 1
			},
			"evm": {
				"assembly": "    /* \"contracts/Controls.sol\":60:290  contract Controls {... */\n  mstore(0x40, 0x80)\n    /* \"contracts/Controls.sol\":102:104  99 */\n  0x63\n    /* \"contracts/Controls.sol\":87:104  int myNumber = 99 */\n  0x00\n  sstore\n    /* \"contracts/Controls.sol\":60:290  contract Controls {... */\n  callvalue\n  dup1\n  iszero\n  tag_1\n  jumpi\n  0x00\n  dup1\n  revert\ntag_1:\n  pop\n  dataSize(sub_0)\n  dup1\n  dataOffset(sub_0)\n  0x00\n  codecopy\n  0x00\n  return\nstop\n\nsub_0: assembly {\n        /* \"contracts/Controls.sol\":60:290  contract Controls {... */\n      mstore(0x40, 0x80)\n      callvalue\n      dup1\n      iszero\n      tag_1\n      jumpi\n      0x00\n      dup1\n      revert\n    tag_1:\n      pop\n      jumpi(tag_2, lt(calldatasize, 0x04))\n      shr(0xe0, calldataload(0x00))\n      dup1\n      0x5c3e3ffc\n      eq\n      tag_3\n      jumpi\n    tag_2:\n      0x00\n      dup1\n      revert\n        /* \"contracts/Controls.sol\":113:285  function checkNumbe() public view returns(bool) {... */\n    tag_3:\n      tag_4\n      tag_5\n      jump\t// in\n    tag_4:\n      mload(0x40)\n      tag_6\n      swap2\n      swap1\n      tag_7\n      jump\t// in\n    tag_6:\n      mload(0x40)\n      dup1\n      swap2\n      sub\n      swap1\n      return\n    tag_5:\n        /* \"contracts/Controls.sol\":155:159  bool */\n      0x00\n        /* \"contracts/Controls.sol\":188:190  99 */\n      0x63\n        /* \"contracts/Controls.sol\":177:185  myNumber */\n      sload(0x00)\n        /* \"contracts/Controls.sol\":177:190  myNumber < 99 */\n      slt\n        /* \"contracts/Controls.sol\":174:276  if(myNumber < 99) {... */\n      iszero\n      tag_9\n      jumpi\n        /* \"contracts/Controls.sol\":214:219  false */\n      0x00\n        /* \"contracts/Controls.sol\":207:219  return false */\n      swap1\n      pop\n      jump(tag_8)\n        /* \"contracts/Controls.sol\":174:276  if(myNumber < 99) {... */\n    tag_9:\n        /* \"contracts/Controls.sol\":260:264  true */\n      0x01\n        /* \"contracts/Controls.sol\":253:264  return true */\n      swap1\n      pop\n        /* \"contracts/Controls.sol\":113:285  function checkNumbe() public view returns(bool) {... */\n    tag_8:\n      swap1\n      jump\t// out\n        /* \"#utility.yul\":7:97   */\n    tag_11:\n        /* \"#utility.yul\":41:48   */\n      0x00\n        /* \"#utility.yul\":84:89   */\n      dup2\n        /* \"#utility.yul\":77:90   */\n      iszero\n        /* \"#utility.yul\":70:91   */\n      iszero\n        /* \"#utility.yul\":59:91   */\n      swap1\n      pop\n        /* \"#utility.yul\":7:97   */\n      swap2\n      swap1\n      pop\n      jump\t// out\n        /* \"#utility.yul\":103:212   */\n    tag_12:\n        /* \"#utility.yul\":184:205   */\n      tag_16\n        /* \"#utility.yul\":199:204   */\n      dup2\n        /* \"#utility.yul\":184:205   */\n      tag_11\n      jump\t// in\n    tag_16:\n        /* \"#utility.yul\":179:182   */\n      dup3\n        /* \"#utility.yul\":172:206   */\n      mstore\n        /* \"#utility.yul\":103:212   */\n      pop\n      pop\n      jump\t// out\n        /* \"#utility.yul\":218:428   */\n    tag_7:\n        /* \"#utility.yul\":305:309   */\n      0x00\n        /* \"#utility.yul\":343:345   */\n      0x20\n        /* \"#utility.yul\":332:341   */\n      dup3\n        /* \"#utility.yul\":328:346   */\n      add\n        /* \"#utility.yul\":320:346   */\n      swap1\n      pop\n        /* \"#utility.yul\":356:421   */\n      tag_18\n        /* \"#utility.yul\":418:419   */\n      0x00\n        /* \"#utility.yul\":407:416   */\n      dup4\n        /* \"#utility.yul\":403:420   */\n      add\n        /* \"#utility.yul\":394:400   */\n      dup5\n        /* \"#utility.yul\":356:421   */\n      tag_12\n      jump\t// in\n    tag_18:\n        /* \"#utility.yul\":218:428   */\n      swap3\n      swap2\n      pop\n      pop\n      jump\t// out\n\n    auxdata: 0xa2646970667358221220978ebcd49d61be8288094fff0abef5dded038aa5331e389909f50a0497ec406164736f6c63430008120033\n}\n",
				"bytecode": {
					"linkReferences": {},
					"object": "6080604052606360005534801561001557600080fd5b5060cb806100246000396000f3fe6080604052348015600f57600080fd5b506004361060285760003560e01c80635c3e3ffc14602d575b600080fd5b60336047565b604051603e9190607c565b60405180910390f35b600060636000541215605b57600090506060565b600190505b90565b60008115159050919050565b6076816063565b82525050565b6000602082019050608f6000830184606f565b9291505056fea2646970667358221220978ebcd49d61be8288094fff0abef5dded038aa5331e389909f50a0497ec406164736f6c63430008120033",
					"opcodes": "PUSH1 0x80 PUSH1 0x40 MSTORE PUSH1 0x63 PUSH1 0x0 SSTORE CALLVALUE DUP1 ISZERO PUSH2 0x15 JUMPI PUSH1 0x0 DUP1 REVERT JUMPDEST POP PUSH1 0xCB DUP1 PUSH2 0x24 PUSH1 0x0 CODECOPY PUSH1 0x0 RETURN INVALID PUSH1 0x80 PUSH1 0x40 MSTORE CALLVALUE DUP1 ISZERO PUSH1 0xF JUMPI PUSH1 0x0 DUP1 REVERT JUMPDEST POP PUSH1 0x4 CALLDATASIZE LT PUSH1 0x28 JUMPI PUSH1 0x0 CALLDATALOAD PUSH1 0xE0 SHR DUP1 PUSH4 0x5C3E3FFC EQ PUSH1 0x2D JUMPI JUMPDEST PUSH1 0x0 DUP1 REVERT JUMPDEST PUSH1 0x33 PUSH1 0x47 JUMP JUMPDEST PUSH1 0x40 MLOAD PUSH1 0x3E SWAP2 SWAP1 PUSH1 0x7C JUMP JUMPDEST PUSH1 0x40 MLOAD DUP1 SWAP2 SUB SWAP1 RETURN JUMPDEST PUSH1 0x0 PUSH1 0x63 PUSH1 0x0 SLOAD SLT ISZERO PUSH1 0x5B JUMPI PUSH1 0x0 SWAP1 POP PUSH1 0x60 JUMP JUMPDEST PUSH1 0x1 SWAP1 POP JUMPDEST SWAP1 JUMP JUMPDEST PUSH1 0x0 DUP2 ISZERO ISZERO SWAP1 POP SWAP2 SWAP1 POP JUMP JUMPDEST PUSH1 0x76 DUP2 PUSH1 0x63 JUMP JUMPDEST DUP3 MSTORE POP POP JUMP JUMPDEST PUSH1 0x0 PUSH1 0x20 DUP3 ADD SWAP1 POP PUSH1 0x8F PUSH1 0x0 DUP4 ADD DUP5 PUSH1 0x6F JUMP JUMPDEST SWAP3 SWAP2 POP POP JUMP INVALID LOG2 PUSH5 0x6970667358 0x22 SLT KECCAK256 SWAP8 DUP15 0xBC 0xD4 SWAP14 PUSH2 0xBE82 DUP9 MULMOD 0x4F SELFDESTRUCT EXP 0xBE CREATE2 0xDD 0xED SUB DUP11 0xA5 CALLER 0x1E CODESIZE SWAP10 MULMOD CREATE2 EXP DIV SWAP8 0xEC BLOCKHASH PUSH2 0x6473 PUSH16 0x6C634300081200330000000000000000 "
				},
				"gasEstimates": {
					"creation": {
						"codeDepositCost": "40600",
						"executionCost": "22199",
						"totalCost": "62799"
					},
					"external": {
						"checkNumbe()": "2458"
					}
				},
				"methodIdentifiers": {
					"checkNumbe()": "5c3e3ffc"
				}
			},
			"storageLayout": {
				"storage": [
					{
						"astId": 4,
						"contract": "contracts/Controls.sol:Controls",
						"label": "myNumber",
						"offset": 0,
						"slot": "0",
						"type": "t_int256"
					}
				],
				"types": {
					"t_int256": {
						"encoding": "inplace",
						"label": "int256",
						"numberOfBytes": "32"
					}
				}
			},
			"userdoc": {
				"kind": "user",
				"methods": {},
				"version": 1
			}
		}
	}
}